:020000040800F2
:100000005023002045020008410C00089D0900080B
:10001000710B000831030008B7170008000000004A
:10002000000000000000000000000000D9120008DD
:100030009B0300080000000097120008D914000874
:100040005F0200085F0200085F0200085F0200080C
:100050005F0200085F0200089D030008E10300083A
:100060005F02000825040008690400085F02000818
:100070005F0200085F0200085F0200085F020008DC
:100080005F0200085F0200085F0200085F020008CC
:100090005F0200085F0200085F0200085F020008BC
:1000A0005F0200085F0200085F0200085F020008AC
:1000B0005F0200083D1500085F0200085F020008AB
:1000C0005F0200085F0200085F0200085F0200088C
:1000D0005F020008D11600085F0200085F020008F6
:1000E0005F0200085F0200085F0200085F0200086C
:1000F0005F0200085F0200085F0200085F0200085C
:100100005F0200085F0200085F0200085F0200084B
:100110005F0200085F0200085F0200085F0200083B
:100120005F0200085F0200085F0200085F0200082B
:1001300000F002F800F05CF80AA090E8000C82449D
:100140008344AAF10107DA4501D100F051F8AFF27A
:10015000090EBAE80F0013F0010F18BFFB1A43F0A5
:10016000010318470C1E00002C1E00000A444FF02B
:10017000000C10F8013B13F0070408BF10F8014B06
:100180001D1108BF10F8015B641E05D010F8016B4B
:10019000641E01F8016BF9D113F0080F1EBF10F8AF
:1001A000014BAD1C0C1B09D16D1E58BF01F801CBD2
:1001B000FAD505E014F8016B01F8016B6D1EF9D555
:1001C0009142D6D37047000000230024002500266A
:1001D000103A28BF78C1FBD8520728BF30C148BFAA
:1001E0000B6070471FB500F064F81FBD10B510BD5F
:1001F00000F06CF81146FFF7F5FF01F073FB00F01B
:100200008AF803B4FFF7F2FF03BC01F0D6FA00004E
:100210000B49D1F800C04A685CF8043B10681844E8
:1002200042F8040B8C4528BFA1F1DC0C8A4228BFA0
:10023000A1F1DC02C1F800C04A6020F00040704724
:10024000E41C00200948804709480047FEE7FEE714
:10025000FEE7FEE7FEE7FEE7FEE7FEE7FEE7FEE776
:1002600004480549054A064B70470000DD140008A4
:1002700031010008501D002050230020501F002095
:10028000501F0020704700000B4910B5A1F17C02FF
:100290000A4CC2E93712372106E000EB104342F85E
:1002A0002130074B00FB03400B1EA1F10101F4DCE0
:1002B00010BD0120E8E70000841C0020E119D6668B
:1002C000CD0D01007047704770477047754600F0CC
:1002D0002BF8AE4605006946534620F007008546D8
:1002E00018B020B5FFF7BCFFBDE820404FF0000676
:1002F0004FF000074FF000084FF0000B21F007010E
:10030000AC46ACE8C009ACE8C009ACE8C009ACE850
:10031000C0098D46704710B50446AFF300802046F3
:10032000BDE81040FFF76DBF00487047EC1C00208F
:1003300000BFFEE7024602EB4200054B03EB001054
:1003400050F8210008B1002070470120FCE70000B0
:100350000815002010B5024600201BE0002116E021
:1003600008B10B2807D16FF0010301EB410402EB48
:10037000041444F8203009B11F2907D16FF001039C
:1003800001EB410402EB041444F82030491C2029FD
:10039000E6DB401C0C28E1DB10BD704710B50120E6
:1003A0000C4908600A2001F033FA02210A4800F0E3
:1003B0003AFA50B9002000F05FFB0848006808B91D
:1003C000012000E0002005490860012000F0E0F86D
:1003D00010BD0000381000200008014098012142A3
:1003E00010B502200C4908600A2001F011FA04211E
:1003F0000A4800F018FA50B9002000F03DFB084808
:10040000006808B9012000E00020054908600220CA
:1004100000F0BEF810BD00003810002000080140B8
:100420009801214210B503200C4908600A2001F010
:10043000EFF908210A4800F0F6F950B9002000F061
:100440001BFB0848006808B9012000E000200549AE
:100450000860082000F09CF810BD00003810002053
:10046000000801409801214210B504200C490860A1
:100470000A2001F0CDF910210A4800F0D4F950B952
:10048000002000F0F9FA0848006808B9012000E0EF
:10049000002005490860102000F07AF810BD000027
:1004A0003810002000080140980121420EB500F0EC
:1004B000D1FA0121084600F0FFFE0021062000F0DD
:1004C00007F9012001900C208DF8090001A800F027
:1004D00065F80121062000F0FBF8022001900C20B5
:1004E0008DF8090001A800F059F80321062000F05A
:1004F000EFF8082001900C208DF8090001A800F009
:100500004DF80421062000F0E3F8102001900C20A3
:100510008DF8090001A800F041F806208DF80000D0
:1005200002208DF8010003208DF8020001208DF8D3
:100530000300684600F086FB07208DF800000220CB
:100540008DF801008DF8020001208DF80300684647
:1005500000F078FB09208DF8000002208DF80100E2
:1005600001208DF802008DF80300684600F06AFB58
:100570000A208DF8000002208DF8010000208DF87F
:10058000020001208DF80300684600F05BFB0EBD01
:10059000014908607047000014040140002123490C
:1005A0008279002A3AD00A46126803689A430B46B9
:1005B0001A600A1D126803689A430B1D1A600279BB
:1005C00011440A6803681A430A60184A083212681C
:1005D00003689A43154B08331A601A1D12680368A2
:1005E0009A43124B0C331A604279102A0ED11A1F0B
:1005F000126803681A430D4B08331A601A1D1268FB
:1006000003681A43094B0C331A600DE0074942791D
:1006100011440A6803681A430A6005E0027911442C
:100620000A6803689A430A607047000000040140AA
:1006300010B51248006800EB4000114901EB0010B2
:100640000E49496850F82100401CA8B901200D4905
:1006500008700D480068401C0B49086000F016F84F
:1006600000200649096801EB4101054A02EB01112E
:10067000024A526841F8220010BD0000081B002009
:1006800008150020301000202410002070B500BF95
:10069000FFF7BEFD1E2190FBF1F201FB1204FFF7F4
:1006A000B7FD0A2190FBF1F201FB12052946204615
:1006B000FFF740FE0028EBD04FF0FF3004EB440181
:1006C000024A02EB011141F8250070BD0815002017
:1006D00030B500228B071C0F0F2303FA04F20B4BDB
:1006E0008C1053F824309343084C8D1044F8253077
:1006F00023468C1053F824308C07240F00FA04F49E
:100700002343024C8D1044F8253030BD08000140D1
:100710002DE9F04102460025002600200023002498
:10072000002791F803C00CF00F0591F803C00CF0FE
:10073000100CBCF1000F03D091F802C04CEA050583
:1007400091F800C0BCF1000F31D0146800202BE0FC
:100750004FF0010C0CFA00F3B1F800C00CEA0306EC
:100760009E4220D183004FF00F0C0CFA03F7BC43DC
:1007700005FA03FC4CEA040491F803C0BCF1280F0D
:1007800006D14FF0010C0CFA00FCC2F814C00AE0CC
:1007900091F803C0BCF1480F05D14FF0010C0CFAE1
:1007A00000FCC2F810C0401C0828D1D31460B1F876
:1007B00000C0BCF1FF0F34DD546800202EE000F1D2
:1007C000080C4FF0010808FA0CF3B1F800C00CEA6D
:1007D00003069E4221D183004FF00F0C0CFA03F761
:1007E000BC4305FA03FC4CEA040491F803C0BCF1D5
:1007F000280F05D100F1080C08FA0CF8C2F8148093
:1008000091F803C0BCF1480F07D100F1080C4FF07C
:10081000010808FA0CF8C2F81080401C0828CED352
:100820005460BDE8F0810246002093680B400BB194
:10083000012000E00020704741617047016170476E
:1008400010B500F041FA00F005FEFFF71FFF00F0C1
:100850004DFB10BD2DE9F0410746002525E000269F
:1008600020E005EB450007EB001050F82640022C75
:1008700004D13146284600F07CFC12E0A01C20B9CF
:100880003146284600F0EDFC0BE0601C20B93146F3
:10089000284600F0B6FC04E01CB93146284600F0BA
:1008A00096FC761C0C2EDCDB6D1C202DD7DB00F0BB
:1008B0001DFBBDE8F081000010B500200B4C226844
:1008C000636801210CE0094C54F83140944206D190
:1008D000064C04EBC10464689C4200D10120491C11
:1008E000034C2468A142EEDB10BD0000081B002071
:1008F0002010002010B50024002000F0BDF80446B0
:100900004CB3012C06D0022C0CD0032C12D0042C9A
:1009100020D117E010480068012802D002200E49BB
:10092000086017E00C480068022802D001200A493C
:1009300008600FE008480068032802D00420064938
:10094000086007E004480068042802D00320024938
:10095000086000BF00BF10BD281000200E480068CE
:100960001F2803D101200C49086014E00A480068E0
:1009700018B91E20084908600DE0074840680B2898
:1009800003D101200449486005E00348406810B9DC
:100990000A20014948607047081B002000BFFEE79D
:1009A00010B54FF400510C48FFF748FF4FF4805149
:1009B0000948FFF743FF012000F050FF4FF40051BA
:1009C0000548FFF739FF012000F048FF4FF4805140
:1009D0000148FFF731FF10BD000C014010B54FF486
:1009E00080510C48FFF728FF4FF400510948FFF7EA
:1009F00023FF012000F032FF4FF480510548FFF73C
:100A00001DFF4FF400510348FFF718FF012000F0CD
:100A100025FF10BD000C014010B54FF480510C486B
:100A2000FFF70AFF4FF400510948FFF705FF0120C7
:100A300000F014FF4FF480510548FFF7FFFE01203E
:100A400000F00CFF4FF480510148FFF7F5FE10BD98
:100A5000000C014008B50121042000F02DFC1E20EF
:100A6000ADF8000048208DF8030069460148FFF703
:100A70004FFE08BD0008014010B5044614B1012026
:100A80002C4908702B480078002835D002212A48CC
:100A9000FFF7C9FE70B104212748FFF7C4FE48B133
:100AA00008212548FFF7BFFE20B110212248FFF79B
:100AB000BAFE08BB0A2000F0ABFE00201D490870FA
:100AC00002211D48FFF7AFFE08B9012010BD042127
:100AD0001948FFF7A8FE08B90220F7E708211648D1
:100AE000FFF7A1FE08B90320F0E710211248FFF735
:100AF0009AFEE0B90420E9E702210F48FFF793FED0
:100B000001280BD104210C48FFF78DFE012805D1E7
:100B100008210948FFF787FE012805D01021064863
:100B2000FFF781FE012802D1012002490870002050
:100B3000CCE700003C1000200008014008B501216E
:100B4000042000F0B9FB6020ADF8000010208DF803
:100B5000030003208DF8020069460448FFF7D8FD22
:100B600060210248FFF76AFE08BD0000000801404E
:100B700000BFFEE710B500212C480068401E2C4B3A
:100B800053F8300000EB40002A4B03EB00132748DA
:100B90000068401E264C04EBC000406843F820105B
:100BA0002548007838B121480068401C1F4908607A
:100BB0000020214908701D480068421E0DE0501EAB
:100BC0001B4951F8300041F83200501E01EBC000C3
:100BD000406801EBC2014860521E002AEFDC174852
:100BE0000068012817D002280FD0032807D0042856
:100BF00017D10F484068401E0D49486011E00C486D
:100C00004068401C0A4948600BE009480068401EE3
:100C10000749086005E006480068401C0449086070
:100C200000BF00BFFFF79AFE10BD0000201000209B
:100C3000081B00200815002030100020281000207C
:100C40007047000070B5002100230F22C47804B360
:100C5000154C246804F4E064C4F5E064210AC1F191
:100C60000403CA40447804FA03F184781440214311
:100C700009010E4C0678A155047804F01F050124E3
:100C8000AC4005786D11AD0005F1E025C5F80041D7
:100C900009E0047804F01F050124AC40044D0678F7
:100CA000761145F8264070BD0CED00E000E400E050
:100CB00080E100E002490143024A116070470000F0
:100CC0000000FA050CED00E070B500240CE00025F2
:100CD00006E00020074901EBC5010855681CC5B2B4
:100CE000802DF6DB601CC4B2082CF0DB00F0FEF8AF
:100CF00070BD00000811002070B50B46CE1701EB47
:100D00005676C6F3C702CE1701EB5676F610A1EB66
:100D1000C606F4B20123A340DDB20E4B03EBC003C1
:100D20009B5CDB430B4E06EBC006B354094B03EB55
:100D3000C0039B5C2B43074E06EBC006B354054B28
:100D400003EBC0039B5CDB43024E06EBC006B354CF
:100D500070BD00000811002070B50A46CE1701EBE7
:100D60005676C6F3C703CE1701EB5676F610A1EB05
:100D7000C606F4B20122A240D5B2054A02EBC00277
:100D8000D25C2A43024E06EBC006F25470BD00004E
:100D90000811002008B50121082000F08DFA4FF459
:100DA0008050ADF8000010208DF8030003208DF86E
:100DB000020069464648FFF7ABFC4FF480514448B7
:100DC000FFF73CFD4FF40050ADF8000010208DF807
:100DD000030003208DF8020069463D48FFF798FCA8
:100DE0004FF400513A48FFF729FD0021AE2000F0F2
:100DF000A4F90021084600F0A0F90021102000F01D
:100E00009CF90021402000F098F90021812000F099
:100E100094F90021CF2000F090F90021A12000F0EA
:100E20008CF90021C82000F088F90021A62000F0EC
:100E300084F90021A82000F080F900213F2000F073
:100E40007CF90021D32000F078F90021084600F059
:100E500074F90021D52000F070F90021802000F005
:100E60006CF90021D92000F068F90021F12000F090
:100E700064F90021DA2000F060F90021122000F06E
:100E80005CF90021DB2000F058F90021402000F03F
:100E900054F90021202000F050F90021022000F038
:100EA0004CF900218D2000F048F90021142000F0B9
:100EB00044F90021A42000F040F90021A62000F010
:100EC0003CF90021AF2000F038F9FFF7FDFE08BD26
:100ED000000C014010B50246012000E050430B1EFB
:100EE000A1F10104E1B2F9D110BD000070B50024F8
:100EF0001CE004F1B001C8B2002100F01EF900218D
:100F0000084600F01AF90021102000F016F900251B
:100F100008E0084901EBC501085D012100F00DF969
:100F2000681CC5B2802DF4DB601CC4B2082CE0DB69
:100F300070BD0000081100202DE9FF4F81B0074669
:100F40000D461C4600952046E31704EB5373DB1057
:100F500021464FEAE47C04EB5C7C4FEAEC0CA4EB0A
:100F6000CC0CBCF1000F02D04FF0010C01E04FF0AF
:100F7000000C6344224604EBD27C4FEA6C0C03FB6A
:100F80000CF303F0FF0A0398203800F0FF0B002653
:100F90002BE0184800EB0B1010F806904FF00008FB
:100FA0001DE009F0800020B129463846FFF7D4FE45
:100FB00003E029463846FFF79FFE4FEA49604FEAB3
:100FC0001069681CC5B20098281AA04203D1009D80
:100FD000781CC7B206E008F1010000F0FF08B8F184
:100FE000080FDEDB00BF701CC6B25645D1DB05B072
:100FF000BDE8F08F601900082DE9F04F06468A46DB
:1010000091461F46099C00252CE0781B401EC1B26A
:101010000A20FFF75FFFB9FBF0F00A21B0FBF1F205
:1010200001FB1208B8F1000F0CD1A34604EBDB71F1
:10103000491001FB0561C8B2234630225146FFF733
:101040007BFF0DE0A34604EBDB71491001FB05615A
:10105000C8B208F13001CAB223465146FFF76CFF0F
:10106000681CC5B2BD42D0DBBDE8F08F2DE9F05F52
:1010700005460E4617469846DDF828B04FF00009A1
:10108000CA460024E11704EB5171C910A4EBC10159
:1010900001B901E0601CC4B2344614E02146284680
:1010A00000F036F8AA460AE01BF80900012100F01A
:1010B00044F809F101090AF1010000F0FF0ABA45FC
:1010C000F2DB601CC4B24445E8DBBDE8F09FF0B53C
:1010D00006460F4614461D4613E022782B46394635
:1010E0003046FFF729FF284605EBD07106EB61017A
:1010F000CEB2C5F18000B04202DA0026B81CC7B2F9
:10110000641C2078202802DB20787E28E5DDF0BDF5
:1011100070B504460D4605F1B001C8B2002100F0DB
:101120000CF8102141EA1410002100F006F804F038
:101130000F00002100F001F870BD70B505460C46A7
:10114000FFF72EFC782000F0C9F8FFF765FC1CB112
:10115000402000F0C3F802E0002000F0BFF8FFF7E5
:101160005BFC284600F0BAF8FFF756FCFFF736FCA8
:1011700070BD2DE9F04106460F46BC0021E0B500E8
:101180001AE0B800A04203D0B800C01CA04205D1AC
:1011900004F11002D1B2E8B2FFF7DEFDB000A842C0
:1011A00003D0B000C01CA84205D104F11002D1B296
:1011B000E8B2FFF7D1FD6D1CB000001DA842E0DCD5
:1011C000641CB800001DA042D9DCBDE8F0812DE907
:1011D000F04104460D46AE000DE0A70006E006F122
:1011E0001002D1B2F8B2FFF787FD7F1CA000001DEE
:1011F000B842F4DC761CA800001DB042EDDCBDE86E
:10120000F0812DE9F04106460F46BC0023E0B50011
:101210001CE0B800401CA04203D0B800801CA042D3
:1012200005D104F11002D1B2E8B2FFF795FDB0008C
:10123000401CA84203D0B000801CA84205D104F194
:101240001002D1B2E8B2FFF787FD6D1CB000001D9F
:10125000A842DEDC641CB800001DA042D7DCBDE85B
:10126000F0812DE9F04104460D46AE000DE0A700E7
:1012700006E006F11002D1B2F8B2FFF76DFD7F1C57
:10128000A000001DB842F4DC761CA800001DB0428E
:10129000EDDCBDE8F081704729B1064AD26902430E
:1012A000044BDA6104E0034AD2698243014BDA61FC
:1012B000704700000010024029B1064A92690243BB
:1012C000044B9A6104E0034A92698243014B9A619C
:1012D00070470000001002407047000070B50446DF
:1012E000002526E04FF480511348FFF7A5FA04F0DB
:1012F000800028B14FF400510F48FFF79FFA04E037
:101300004FF400510C48FFF797FA4FF480510A4808
:10131000FFF794FA012000F053FA4FF48051064889
:10132000FFF78AFA012000F04BFA6006040E681CF1
:10133000C5B2082DD6DB70BD000C014010B500F021
:1013400001F810BD0CB500200190009033480068F2
:1013500040F480303149086000BF3048006800F434
:10136000003000900198401C0190009818B9019835
:10137000B0F5A06FF1D12948006800F4003010B139
:101380000120009001E0002000900098012843D146
:101390002348006840F010002149086008460068B2
:1013A00020F0030008600846006840F00200086072
:1013B0001A4840681949486008464068486008462D
:1013C000406840F4806048600846406820F47C1023
:1013D00048600846406840F4E810486008460068E5
:1013E00040F08070086000BF0C48006800F000709A
:1013F0000028F9D00948406820F0030007494860F8
:101400000846406840F00200486000BF034840685A
:1014100000F00C000828F9D10CBD000000100240BB
:101420000020024008B5102307A200211E20FFF76C
:101430004EFE102002230090054800210268502033
:10144000FFF7DAFD08BD000053636F72653A0000D4
:101450002410002010B50520104908600020104914
:10146000086007200F4908600520486001240BE050
:101470000C480068001B0B4941F8340008464068DE
:1014800001EBC4014860641C052CF1DB0120064916
:1014900008600648FEF75EFF10BD00002010002027
:1014A00024100020081B0020281000200815002010
:1014B000042808D14FF0E021096941F004014FF000
:1014C000E022116107E04FF0E021096921F00401F9
:1014D0004FF0E022116170477047000010B51348CB
:1014E000006840F001001149086008464068104952
:1014F00008400E494860084600680E4908400B49FC
:1015000008600846006820F48020086008464068AB
:1015100020F4FE0048604FF41F008860FFF70EFFC4
:101520004FF000600449086010BD00000010024048
:101530000000FFF8FFFFF6FE08ED00E010B5012106
:101540000B4800F058F888B10121094800F044F830
:10155000FFF710FBFFF76CF800F0A6F905480068EC
:1015600008B9012000E000200249086010BD000019
:1015700000040040940121427FB505460C4601213C
:101580000220FFF789FEADF80850ADF804400020B6
:10159000ADF80A00ADF8060001A90E4800F046F8C3
:1015A000012211460B4800F037F81D208DF800008D
:1015B00000208DF8010003208DF8020001208DF835
:1015C00003006846FFF73EFB0121024800F007F8E0
:1015D0007FBD000000040040CA430282704721B171
:1015E000028842F00102028004E002884FF6FE7396
:1015F0001A400280704730B50246002000230024C4
:10160000158A05EA0103958905EA010413B10CB1B5
:10161000012000E0002030BD1AB183890B43838193
:1016200002E083898B438381704700000022028897
:101630001D4B98420ED01D4B98420BD0B0F1804FFD
:1016400008D01B4B984205D01A4B984202D01A4B37
:10165000984204D14FF68F731A404B881A43174BA8
:10166000984207D0164B984204D04FF6FF431A40D9
:10167000CB881A4302808B8883850B8803850A4BAD
:1016800098420BD0094B984208D00E4B984205D097
:101690000D4B984202D00D4B984201D10B7A038634
:1016A0000123838270470000002C01400034014078
:1016B0000004004000080040000C00400010004002
:1016C0000014004000400140004401400048014037
:1016D00010B540F225511D4800F03EF810B31B48EC
:1016E00000F064F8C4B21A48008800F40040C8B999
:1016F0001748008800F4804060B10A2C03D0002015
:101700001349088020E01248008840F40040104946
:10171000088019E00D2C06D10D48008840F4804067
:101720000B49088010E00A480088C0F30D00094901
:101730000C5407480088401C05490880084600886A
:10174000C72801DD0020088010BD000000380140DE
:101750001C1000204010002070B502460024002319
:101760000025002040F66A16B14200D100BFC1F347
:10177000421501F01F03012606FA03F3012D02D1E1
:101780009689334006E0022D02D1168A334001E0EB
:10179000968A33400C12012606FA04F41688344067
:1017A00013B10CB1012000E0002070BD0146888813
:1017B000C0F30800704700BFFEE7014600BF704756
:1017C00000BF011EA0F10100FBD1704710B56FF002
:1017D0000400FFF76DFE0A4800680A49B0FBF1F00B
:1017E000094908700846007800EB4001C1EBC010C1
:1017F0004FF6FF7101EAC0000449088010BD0000E7
:101800000010002000127A00141000201610002092
:101810000146114A12884A434FF0E0235A610022E0
:101820009A611A46126942F001021A6100BF4FF034
:10183000E022106900F001021AB100F48032002A9F
:10184000F5D04FF0E022126922F001024FF0E023C0
:101850001A6100229A617047161000200146114A51
:1018600012784A434FF0E0235A6100229A611A46E7
:10187000126942F001021A6100BF4FF0E0221069C4
:1018800000F001021AB100F48032002AF5D04FF0C6
:10189000E022126922F001024FF0E0231A610022D7
:1018A0009A6170471410002030B500200EE00A4BFA
:1018B00053F8302003EBC0035968022302EB4204C3
:1018C000064D05EB041444F82130401C044B1B6802
:1018D0009842ECDB30BD0000081B002008150020FA
:1018E0002010002008B5FFF771FF4FF4A060FFF74C
:1018F000E1F9FFF723F9FFF74DFA41F61F4140F2F6
:10190000CF70FFF739FEFEF7D1FDFEF799FF1148C2
:1019100008238022002100900846FFF7A7FB40F231
:101920004770FFF775FF13E0FEF7E4FFFFF77AFD5E
:101930000948FEF78FFFFEF7BFFF48B1FFF7C4F974
:10194000064808238022002100900846FFF78EFBFE
:10195000EAE7000000040020081500200000002035
:101960000000000000000000000000000000000077
:101970000000000000001FCC000C00000000000070
:101980000000080030006000080030006000000027
:10199000022003FC1E20022003FC1E200220000067
:1019A00000000E1811043FFF10840C7800000000A6
:1019B0000F0010840F3800C00778188400780000EA
:1019C00000780F8410C411240E9800E400840008ED
:1019D0000800680070000000000000000000000027
:1019E00000000000000007E018182004400200007A
:1019F000000040022004181807E00000000000006A
:101A00000240024001800FF00180024002400000CD
:101A10000080008000800FF80080008000800000BF
:101A20000001000D000E000000000000000000009A
:101A30000000008000800080008000800080008026
:101A40000000000C000C000000000000000000007E
:101A50000000000600180060018006001800200049
:101A6000000007F0080810041004080807F0000040
:101A70000000080408041FFC00040004000000002B
:101A800000000E0C10141024104411840E0C0000E1
:101A900000000C1810041104110412880C700000CE
:101AA000000000E00320042408241FFC00240000A0
:101AB00000001F9810841104110410881070000099
:101AC000000007F008881104110418880070000055
:101AD00000001C00100010FC13001C00100000008F
:101AE00000000E3811441084108411440E38000098
:101AF00000000700088C10441044088807F000001C
:101B0000000000000000030C030C000000000000B7
:101B100000000000000101060000000000000000BD
:101B2000000000800140022004100808100400009A
:101B300002200220022002200220022002200000B7
:101B4000000010040808041002200140008000007A
:101B500000000E001200100C106C10800F0000002E
:101B600003E00C1813E4142417C4082807D000005D
:101B70000004003C03C41C40074000E4001C0004B7
:101B800010041FFC1104110411040E8800700000E1
:101B900003E00C1810041004100410081C100000BE
:101BA00010041FFC100410041004080807F00000C3
:101BB00010041FFC1104110417C4100408180000BD
:101BC00010041FFC1104110017C0100008000000D1
:101BD00003E00C181004100410441C7800400000AE
:101BE00010041FFC10840080008010841FFC10046F
:101BF0000000100410041FFC10041004000000007A
:101C000000030001100110011FFE10001000000071
:101C100010041FFC110403801464181C100400003D
:101C200010041FFC1004000400040004000C000059
:101C300010041FFC1F0000FC1F001FFC100400000C
:101C400010041FFC0C04030000E010181FFC10001F
:101C500007F00808100410041004080807F000003A
:101C600010041FFC10841080108010800F000000F2
:101C700007F0081810241024101C080A07F20000AE
:101C800010041FFC1104110011C011300E0C0004CF
:101C900000000E1C11041084108410441C38000035
:101CA0001800100010041FFC1004100018000000A1
:101CB00010001FF810040004000410041FF81000A6
:101CC00010001E0011E0001C007013801C001000AA
:101CD0001FC0103C00E01F0000E0103C1FC00000CF
:101CE0001004180C163401C001C01634180C10046E
:101CF00010001C00130400FC13041C001000000062
:101D00000804101C1064108413041C041018000034
:101D10000000000000007FFE400240024002000080
:101D2000000030000C0003800060001C0003000075
:101D300000004002400240027FFE00000000000060
:101D40000000000020004000400040002000000093
:101D5000000100010001000100010001000100017B
:101D600000004000400020000000000000000000D3
:101D700000000098012401440144014400FC0004D7
:101D800010001FFC0088010401040088007000009E
:101D900000000070008801040104010400880000B4
:101DA0000000007000880104010411081FFC0004F9
:101DB000000000F8014401440144014400C800004F
:101DC0000000010401040FFC1104110411001800AB
:101DD000000000D601290129012901C901060000DE
:101DE00010041FFC008401000100010400FC000439
:101DF00000000104190419FC0004000400000000A4
:101E00000000000300010101190119FE000000009B
:101E100010041FFC0024004001B4010C0104000068
:101E20000000100410041FFC000400040000000067
:101E3000010401FC0104010001FC0104010000FC9B
:101E4000010401FC008401000100010400FC000405
:101E5000000000F8010401040104010400F800007E
:101E6000010101FF008501040104008800700000E9
:101E700000000070008801040104010501FF000159
:101E80000104010401FC0084010401000180000040
:101E9000000000CC01240124012401240198000049
:101EA00000000100010007F8010401040000000027
:101EB000010001F8000400040004010801FC000412
:101EC000010001800170000C001001600180010020
:101ED00001F0010C003001C00030010C01F00100E4
:101EE00000000104018C00740170018C01040000E9
:101EF000010101810171000E0018016001800100E3
:101F000000000184010C013401440184010C000033
:101F1000000000000000000001003EFC4002400202
:101F20000000000000000000FFFF000000000000B3
:101F30000000400240023EFC0100000000000000E2
:101F40000000600080008000400040002000200071
:101F50000000000000000000000000000000000081
:101F60000000000000000000000000000000000071
:101F7000901F000800000020401000006C010008C5
:101F80002C2500084010002010130000C801000894
:101F900001FFA15E80E070080401623C66C038EC7D
:101FA000708076041CE49CE02DC0F00CFC261AFC2A
:101FB0000229012A183C3A183D280E0C1878D060E6
:101FC00080040C748C748404379C84740C2A3A1C2E
:101FD0000A06110C14EC18F03C3FFFE06C1C1010CA
:101FE000F00229675F3E212020277B772810F80721
:101FF00001063BCC30C0E018060107F80F4012FF85
:102000002AFF551B1F803C82C035C03FC03F500A8D
:10201000010E739C6080700C03892A290A5E0C34BF
:102020004BB1C0D8C12D0103070627140502012DAD
:1020300004040704C1111908290A590F2B010713B9
:10204000491459061908393C2A020B2A063C694FE3
:102050004A067D7930490839493D010205065F018C
:102060003F280880804060404080CD16C0202090EE
:10207000901388883D08101060120149181D1070D7
:10208000C0B09010107088844242293721414182AB
:102090000434C4040482814D312001373C42C181A3
:1020A000FD93000F4F0C0703032620705098949463
:1020B0001318281A0101B90D990F191128080302E4
:1020C000040808181001AD080808071C01B07812B0
:1020D0008080A0C040406040C080E0302030207050
:1020E000C019280BC0E0E0F0F0F0F8F8381801064D
:1020F0002130303060401B20E001190612201C40C6
:1021000040C00649490D152020C0807E3815C262A6
:102110003F312060783C3C181F0C181C1E8E8C0F21
:102120001C30837B3EFF018DFCF8F0E04149971A9B
:10213000F01309120F2808011F7FFF7C1F01D8151B
:10214000FFFF848022E007163F7FC0807F3F181684
:1021500001070C18103060E06242624664E6A23368
:1021600031180C06033E41780803070F1F1F3F7FFD
:10217000871AFE8812C0390B3B0303073139086BFD
:1021800083830F39540132347FFCF88C021FF0E74F
:10219000380E18387060E0C0C080808091B3F75F5F
:1021A0005F7F7F3F1F17F06A39073CF010D0084A65
:1021B000BFA1111D4040E0E0141A50011AB0D589AA
:1021C0004D011F19651815C386CC98B0E043C78729
:1021D000878606040C0818181010707F112A010158
:1021E000295C3809FFC060F0FCFEC70301211CC355
:1021F00023A316480A20BFA3A3A373FFF801161B4D
:10220000808014000D1780FF80C0C0C0E0E1B87F5F
:102210003F0F191F46A0E03060C01658FEE3C10111
:102220003013183C6642C28287838687848181830B
:10223000C2EEF8E0195643E37E19561503FD060178
:102240003F030F3FFFFCF0372B0101161142FF1F28
:102250008183C0F0D0E0ED2B0505142FFE020202B1
:10226000031F291913011458090F191021211111E5
:10227000189F19BA19F2180D081811131313111019
:102280001018181CFD190736080C0603013B02073D
:1022900001140604047B04060CDB0105018B060710
:1022A0002A1A08560008FF1F17170B0B06040122F5
:1022B0001A8001390539095911D901A92749058918
:1022C0003B9908C9557951011A200BDE622203207F
:1022D00050881393FE3354542AFF04180A848484CC
:1022E000A4E040404064401AA40D17FC03788C839E
:1022F0000115088FCF3016E63921231C2E0321311A
:10230000EE701420101009FF699999A0C02020E9EF
:1023100009098F78180AFE010101F10101FE080187
:1023200032380B1A7F40831813718E8282647C824C
:102330008F91A1A2949C8A71414345342829778CBE
:102340008C8C88808040444460204040848CCC74D5
:1023500003F68988888848484FF0889E9190B0A0FD
:10236000A7999193FF761420108868FF9294844770
:10237000402060408189997700141A0F10101013C3
:102380001E12131212729292929E8080701F19E098
:102390003A809F1720E0E07030107D80C0C0E01BC5
:1023A000610D112040C080C3393A4901290E6938B6
:1023B0007951091638F1300C01030F1FFCF8F8149D
:1023C0000F02012CFEFFFF0729179403FFFF0511E1
:1023D000FFFE01FE3808FFFF071F7CF0402669382A
:1023E000080B18070F999F5DE9B15F2F1E38011088
:1023F0005008080C0F0F0F0C087E11272F383016CD
:1024000049154F10382E17090697C9361920AC09FF
:102410000F0F38080B160E0F0F0D0D0C0C0C0F0EB6
:102420003801FF01170D1EE0F03818018438F0E084
:102430000C1AC0F07030052E3870E0C078080F1FFD
:1024400098F0F07030017189118770F0F0981F0FCB
:102450007BFFFF8A19012B2010011B30E00B0910B4
:10246000210128893229C209100BB953890C35FF83
:10247000FFC03F080A3380C0C0607F7F7FFF80803D
:1024800087F0FE0E0303031A0C0109100B116703FA
:1024900003070EFEF01B3F7FED1A8075ADE07F1F36
:1024A0000770000F28FFFE6060E01010101F1F185B
:1024B00030F0C0870107070CFCFC3CFEFE06012C37
:1024C000F6FE0E078127FCFC0C0F07011FF8FC0E1F
:1024D000060202B01B03010E41198969805D0303E6
:1024E000020216042CC0FF3F3D070F1C18013B1CC5
:1024F0000FD2194C691239166C0E0F03175A0E18A9
:102500001A0C012C060602882D03070F0E0F790105
:102510005C0E07038801107CA24A04F80008200220
:0C252000030406070809694A29080000A6
:0400000508000245A8
:00000001FF
